{
  "contractName": "Burner",
  "abi": [
    {
      "constant": false,
      "inputs": [
        {
          "name": "_amount",
          "type": "uint256"
        }
      ],
      "name": "dragonHandler",
      "outputs": [],
      "payable": false,
      "stateMutability": "nonpayable",
      "type": "function"
    }
  ],
  "bytecode": "0x60606040523415600e57600080fd5b60938061001c6000396000f300606060405260043610603f576000357c0100000000000000000000000000000000000000000000000000000000900463ffffffff1680636175f9e2146044575b600080fd5b3415604e57600080fd5b606260048080359060200190919050506064565b005b505600a165627a7a723058201611d16e92a0638f37861e1f6b71f74e00363c66e6aae800aabb4640dbd646c70029",
  "source": "pragma solidity ^ 0.4.11;\n\n\ncontract tokenRecipient {\n    function receiveApproval(address _from, uint256 _value, address _token, bytes _extraData);\n}\n\n\ncontract ERC20 {\n\n    function totalSupply() constant returns(uint _totalSupply);\n\n    function balanceOf(address who) constant returns(uint256);\n\n    function transfer(address to, uint256 value) returns(bool ok);\n\n    function transferFrom(address from, address to, uint256 value) returns(bool ok);\n\n    function approve(address spender, uint256 value) returns(bool ok);\n\n    function allowance(address owner, address spender) constant returns(uint256);\n    event Transfer(address indexed from, address indexed to, uint256 value);\n    event Approval(address indexed owner, address indexed spender, uint256 value);\n\n}\n\ncontract Burner { function dragonHandler( uint256 _amount){} }\n \ncontract Dragon is ERC20 {\n\n\n    string public standard = 'DRAGON 1.2';\n    string public constant name = \"DRAGON\";\n    string public constant symbol = \"DRG\";\n    uint8 public decimals;\n    uint256 public totalSupply;\n  \n    \n    address public owner;\n    mapping( address => uint256) public balanceOf;\n    mapping( uint => address) public accountIndex;\n    uint public accountCount;\n    \n    mapping(address => mapping(address => uint256)) public allowance;\n    address public burner;\n    bool public burnerSet;\n    \n    event Transfer(address indexed from, address indexed to, uint256 value);\n    event Approval(address indexed _owner, address indexed spender, uint value);\n    \n    event Burn(address indexed from, uint256 value);\n\n    \n    function Dragon() {\n         \n        uint supply = 50000000000000000; \n        appendTokenHolders( msg.sender );\n        balanceOf[msg.sender] =  supply;\n        totalSupply = supply; // \n        burnerSet = false;\n        \n        decimals = 8; // Amount of decimals for display purposes\n        owner = msg.sender;\n        \n  \n    }\n    \n    \n    modifier onlyOwner() {\n        if (msg.sender != owner) {\n            throw;\n        }\n        _;\n    }\n\n     modifier onlyBurner() {\n        if (msg.sender != burner) {\n            throw;\n        }\n        _;\n    }\n    \n    function changeOwnership( address _owner ) onlyOwner {\n        \n        owner = _owner;\n        \n    }\n    \n    function setBurner( address _burner ) onlyOwner {\n        require ( !burnerSet );\n        burner = _burner;\n        burnerSet = true;\n        \n    }\n\n    function burnCheck( address _tocheck , uint256 amount ) internal {\n        \n        if ( _tocheck != burner )return;\n        \n        Burner burn = Burner ( burner );\n        burn.dragonHandler( amount );\n        \n        \n    }\n    \n    function burnDragons ( uint256 _amount ) onlyBurner{\n        \n        \n        burn( _amount );\n        \n        \n    }\n    \n    function balanceOf(address tokenHolder) constant returns(uint256) {\n\n        return balanceOf[tokenHolder];\n    }\n\n    function totalSupply() constant returns(uint256) {\n\n        return totalSupply;\n    }\n\n    function getAccountCount() constant returns(uint256) {\n\n        return accountCount;\n    }\n\n    function getAddress(uint256 slot) constant returns(address) {\n\n        return accountIndex[slot];\n\n    }\n\n    \n    function appendTokenHolders(address tokenHolder) private {\n\n        if (balanceOf[tokenHolder] == 0) {\n            if ( tokenHolder == burner ) return;\n            accountIndex[accountCount] = tokenHolder;\n            accountCount++;\n        }\n\n    }\n\n    \n    function transfer(address _to, uint256 _value) returns(bool ok) {\n   \n        if (balanceOf[msg.sender] < _value) throw; \n        if (balanceOf[_to] + _value < balanceOf[_to]) throw;\n        \n        appendTokenHolders(_to);\n        balanceOf[msg.sender] -= _value; \n        balanceOf[_to] += _value; \n        Transfer(msg.sender, _to, _value); \n        burnCheck( _to, _value );\n        \n        return true;\n    }\n    \n    function approve(address _spender, uint256 _value)\n    returns(bool success) {\n        allowance[msg.sender][_spender] = _value;\n        Approval( msg.sender ,_spender, _value);\n        return true;\n    }\n\n \n    function approveAndCall(address _spender, uint256 _value, bytes _extraData)\n    returns(bool success) {\n        tokenRecipient spender = tokenRecipient(_spender);\n        if (approve(_spender, _value)) {\n            spender.receiveApproval(msg.sender, _value, this, _extraData);\n            return true;\n        }\n    }\n\n    function allowance(address _owner, address _spender) constant returns(uint256 remaining) {\n        return allowance[_owner][_spender];\n    }\n\n \n    function transferFrom(address _from, address _to, uint256 _value) returns(bool success) {\n     \n        if (balanceOf[_from] < _value) throw;  \n        if (balanceOf[_to] + _value < balanceOf[_to]) throw;  \n        if (_value > allowance[_from][msg.sender]) throw; \n        appendTokenHolders(_to);\n        balanceOf[_from] -= _value; \n        balanceOf[_to] += _value; \n        allowance[_from][msg.sender] -= _value;\n        Transfer(_from, _to, _value);\n       \n        return true;\n    }\n  \n    function burn(uint256 _value) returns(bool success) {\n        if (balanceOf[msg.sender] < _value) throw; \n        if( totalSupply -  _value < 2100000000000000) throw;\n        balanceOf[msg.sender] -= _value; \n        totalSupply -= _value; \n        Burn(msg.sender, _value);\n        return true;\n    }\n\n    function burnFrom(address _from, uint256 _value) returns(bool success) {\n        \n        if( totalSupply -  _value < 2100000000000000) throw;\n        if (balanceOf[_from] < _value) throw; \n        if (_value > allowance[_from][msg.sender]) throw; \n        balanceOf[_from] -= _value; \n        allowance[_from][msg.sender] -= _value; \n        totalSupply -= _value; \n        Burn(_from, _value);\n        return true;\n    }\n \n    \n}",
  "sourcePath": "/home/fsociety/universal/dragon-project/contracts/drgToken.sol",
  "compiler": {
    "name": "solc",
    "version": "0.4.18+commit.9cf6e910.Emscripten.clang"
  },
  "schemaVersion": "1.0.1",
  "updatedAt": "2018-03-06T01:05:26.297Z"
}